:020000020000FC
:02000000CBC172
:10000C00A0E4AFBDA8E4AFBDC098AFBDDFB82FB6BC
:10001C001124380C491C5A1C6B1C711CA62D052C68
:10002C0070FCA09570FC0094B1E0AA0FB11D00000B
:10003C00CFB8CD90DD901C901C18109C001C002497
:10004C00C11CD01C71FE03C0C094D09403C0089492
:10005C00C008D008A8E4AFBD0FB8C09AA0E8AFBDE7
:10006C002FBE189579E07EBD70E87FBD70E07BBD3A
:10007C0079E47ABD70E178BF79BF74E57DB971E040
:10008C007EB9E6E9F1E0C0E0D1E075917993D33027
:10009C00E1F7C230D1F7CC24DD2433244424552499
:1000AC006624772488249924AA24BB240895792FC4
:1000BC007073C1F07033B1F0703121F49F7B90629A
:1000CC0012D010C07D2D77FD04C09064AA20D1F70A
:1000DC0009C096FF07C09F7D06D0332444245524C5
:1000EC0066247724089587E0CBE6D0E077277A93CF
:1000FC008A95E9F795FF39C0C8E2D3E09CD4112763
:10010C00495A5143664E1C4F10936300C0E6D0E031
:10011C009ED4C4E6D0E0E1E3F3E0729176957A8365
:10012C0072917795798372917795788388E190F4C1
:10013C00E0E6F0E07B811191710F7B837C81119162
:10014C00711F7C837D811191711F7D837E81119143
:10015C00711F7E83EBE6F0E0729177957083EC1360
:10016C00FBCFFD13F9CF8A9511F7799110E87991AE
:10017C00710F4FB7F8948990881E9990981EA9908A
:10018C00A81EB990B81E4FBF08950000C900920177
:10019C005B022403ED03B6047F0548061107D9075B
:1001AC00A2086A09330AFB0AC40B8C0C540D1C0EF2
:1001BC00E30EAB0F72103A110112C8128F135514C3
:1001CC001C15E215A8166E173318F918BE19821AE9
:1001DC00471B0B1CCF1C931D571E1A1FDD1F9F2086
:1001EC0061212322E522A62367242825E825A826B9
:1001FC0067272628E528A329612A1F2BDC2B992C9D
:10020C00552D112ECC2E872F4130FB30B5316E324F
:10021C002633DF3396344D350436BA366F372438EF
:10022C00D9388C39403AF23AA53B563C073DB83D9B
:10023C00683E173FC53F73402141CE417A4225436A
:10024C00D0437A442445CD4575461C47C34769487D
:10025C000F49B449584AFB4A9D4B3F4CE04C814DE9
:10026C00204EBF4E5D4FFB4F97503351CE516852CD
:10027C0002539B533254C9546055F5558A561D5739
:10028C00B0574258D3586459F359825A0F5B9C5B50
:10029C00285CB35C3E5DC75D4F5ED75E5D5FE35F20
:1002AC006860EB606E61F0617162F1627063EE63C5
:1002BC006C64E8646365DD655666CF664667BC674B
:1002CC003268A66819698B69FD696D6ADC6A4A6BCC
:1002DC00B76B236C8E6CF86C616DC96D306E966E5D
:1002EC00FB6E5E6FC16F22708370E27040719D7106
:1002FC00F9715472AE7207735E73B5730A745F74DE
:10030C00B27404755575A575F37541768D76D876EE
:10031C0022776B77B377FA773F788478C778097947
:10032C004A798979C879057A417A7C7AB67AEE7AF3
:10033C00267B5C7B917BC57BF87B297C597C887CFC
:10034C00B67CE37C0E7D397D627D897DB07DD57D6B
:10035C00FA7D1D7E3E7E5F7E7E7E9C7EB97ED57E46
:10036C00EF7E097F217F377F4D7F617F747F867F92
:10037C00977FA67FB47FC17FCD7FD87FE17FE97F58
:10038C00F07FF57FF97FFD7FFE7FFF7FCFE5D4E027
:10039C00CDBFDEBF0ED022D02ED013D03CD062DE2B
:1003AC00789467D111D0FFD07BD159D080DE07D0A3
:1003BC00F9CFA89578E171BD7CE071BD0895A89541
:1003CC00089575E073BF08959E7F78B770FF05C0E0
:1003DC00716078BF74E672BF9160089570E078BB6D
:1003EC007FEF77BB70E075BB7FEF74BB74EF72BBB4
:1003FC007FEE71BB0895992708951197F1F7089531
:10040C007F93B7E0A0EDF9DFB7E0A0EDF6DF7A95CA
:10041C00C1F77F91089595987FE0F2DF70E392D059
:10042C007FE0EEDF70E38ED07FE0EADF70E38AD00E
:10043C007FE0E6DF70E286D07FE0E2DF78E25FD03B
:10044C0074E1DEDF76E05BD079E1DADF71E057D082
:10045C0079E1D6DF7CE053D079E1D2DF089591FFCA
:10046C0002C09D7F3ED00895C2E0D3E080E2799334
:10047C008A95E9F70895C2E1D3E0772780E1799373
:10048C008A95E9F7089588E1E5E0F3E0440F551FFC
:10049C00661FCCE0D3E07A91771F7A5F74FF7650B9
:1004AC007F707883CE13F7CFDF13F5CF8A9571F772
:1004BC00E9E0F3E040E17881772329F44993CE1702
:1004CC00D1F7DF17C1F7FE01C7E0D3E0EC17FD074A
:1004DC00C6E0D3E010F0C9E0D3E07881706878838F
:1004EC00089572E00CD0C2E0D3E080E279917F9362
:1004FC00729525D07F9123D08A95C1F708957F936B
:10050C0021D07F91729500000000000000000000D7
:10051C000000000000000000000014D008957F933C
:10052C0072950DD07F9100000000000000000000CB
:10053C000000000000000000000001D008957F7052
:10054C00706102C072957F708F9385E09798969832
:10055C0074FF01C0969A771F8A95979AB9F7959A66
:10056C00969A00000000000000000000000000004F
:10057C0000000000000095988F91089553472D348A
:10058C0032304D0056657273696F6E3A20312E30E1
:10059C0031004672657175656E63790073746570B0
:1005AC0000006B487A0037D0C2E2D3E0488147178D
:1005BC0089F04981471759F44B81442359F44881F8
:1005CC0040307883D9F4946060E540E113C07983BE
:1005DC0043E04B839B7F4C81442381F4488144301E
:1005EC0019F0423009F00AC094604A81442321F08A
:1005FC004A9562E14A8301C066E06C8390FF0AC0B1
:10060C007B81772311F07A957B837C81772311F0A2
:10061C007A957C83089501D0969878E09798889481
:10062C00849B0894979A969A771FC0F7089527E3AE
:10063C0008D0089522E305D02DE203D023E201D0A7
:10064C00089516E908D00895272F20952F70225E63
:10065C0019E101D00895322F80E18A95F1F73A958E
:10066C00D9F7A89510FD929A10FF92981A9599F7C0
:10067C00089592E301D270E070932703C1D07CD12E
:10068C00CADF713031F475E070932703B9D074D19F
:10069C0028DF23E2D6DFBFDFA8957030E1F708959D
:1006AC0092FF15C0C2E2D3E07881703081F0CCDFCC
:1006BC00743011F40DD00BC0723011F435D007C06A
:1006CC00713011F463D003C0783009F476D00895FA
:1006DC0070912703743089F0C4E3D3E0ACD1C7E345
:1006EC00D3E0B1D190D1C4E3D3E0A5D14E195F09C9
:1006FC00600B410F521F631F12C0C4E3D3E09BD1A8
:10070C00440F551F661FECD0723049F4C4E3D3E09C
:10071C0096D10695F794E7944E0D5F1D601FE8D0B7
:10072C000CD1986029D10895709127037430B1F0E1
:10073C00C4E3D3E080D1C7E3D3E085D164D1C4E373
:10074C00D3E079D17E2D7F29702B21F04E195F09D2
:10075C00600B17C0411B520B630B13C0C4E3D3E0F7
:10076C006AD1669557954795BBD0753051F4C4E363
:10077C00D3E061D1440F551F661F15E022273327A4
:10078C0042D1B6D0DAD09860F7D008957091270393
:10079C00743099F0753011F46FD109C0703029F0B4
:1007AC0093FF01C004C0733011F0739501C070E069
:1007BC007093270325D0E0D00895709127037530EE
:1007CC0011F484D117C0703011F474E014C071307E
:1007DC0039F4C1E3D3E02FD1CEE2D3E038D108C055
:1007EC00723011F47AD106C0733011F420DF06C0D8
:1007FC0070E02ADF70E07093270302D0BDD008951B
:10080C0070912703753099F4C8E2D3E014D1C4E396
:10081C00D3E01DD14AE050E060E0C7E3D3E017D14C
:10082C0040E050E060E01FE926E831E04CC0703059
:10083C0099F4CEE2D3E0FFD0C4E3D3E008D1CBE20D
:10084C00D3E0F9D0C7E3D3E002D144E650E060E056
:10085C0010E42BE43CE437C0743069F4CBE2D3E011
:10086C00EAD0C4E3D3E0F3D041E050E060E010E420
:10087C0022E43FE028C07330A1F494FD41E050E045
:10088C0060E0C4E3D3E0E3D041E050E060E0C7E3D4
:10089C00D3E0DDD040E050E060E011E020E030E05B
:1008AC0012C040E050E060E0C4E3D3E0D0D041E0BF
:1008BC0050E060E0C7E3D3E0CAD040E050E060E035
:1008CC0019E020E030E0CAE3D3E0C5D0CDE3D3E0BB
:1008DC00BED0C4E3D3E0AFD00BD02FD0977F089518
:1008EC00C5E0D3E079917F77E9F37031D9F30895BE
:1008FC0013D010F01BD060F4C4E3D3E09CD097DE8F
:10090C000BD010F013D020F44E2D5F2D602F8FDE06
:10091C00C4E3D3E09CD00895CDE3D3E090D070EC49
:10092C00761718F04E155F0560070895CAE3D3E0FB
:10093C0086D0E416F50606070895709127037030EB
:10094C0029F4CEE2D3E083D0CEDB15C0743021F491
:10095C00CBE2D3E07CD00FC0733019F440FB94F998
:10096C000AC0713011F4ABD006C0753021F4C8E266
:10097C00D3E06DD0B8DB089570E176DDC4E3D3E04D
:10098C005AD070912703733089F4EEE7FAE0742F94
:10099C00740F740FE70FF71FF71BC6E0D3E07591C8
:1009AC00799375917993759179932BC0EEE9F5E074
:1009BC00770FE70FF71FF71BC2E0D3E07591799320
:1009CC0075917993759179937591799375917993D3
:1009DC0075917993759179937591799375917993C3
:1009EC0070912703723029F440930303CEE2D3E0D5
:1009FC0006C0713029F440930303C1E3D3E01BD04C
:100A0C003ADD92600895EE24FF24001B89E1441F17
:100A1C00551F661F8A9559F0EE1CFF1C001FE11A2A
:100A2C00F20A030BA0F7E10EF21E031FF0CF409564
:100A3C005095609508954991599169910895E9905F
:100A4C00F990099108951991299139910895499333
:100A5C00599369930895199329933993089546727C
:100A6C00657175656E6379201D100E1020170F20AF
:100A7C000C10000F0F201A1BC5E2D0E04FD07E3DAA
:100A8C0071F0D5DDC1E0D0E0ECE6FBE047D075912C
:100A9C005BD031962196C632C9F7D030B9F7C1E098
:100AAC00D0E0E8E2F3E033D0C4E0D0E0EBE2F3E0F6
:100ABC002ED0C7E0D0E0EEE2F3E029D0089570919B
:100ACC0034031CD0E1E3F3E022D00895C1E0D0E080
:100ADC00E8E2F3E02ED0AEDD089570913403772375
:100AEC0039F47F93C4E0D0E0EBE2F3E022D07F91C5
:100AFC0005D0EEE2F3E01DD09DDD0895C7E0D0E017
:100B0C00472F740F740F4427C70FD41F089583E029
:100B1C0005D0719321968A95D9F70895A895E199F6
:100B2C00FDCFCEBBDFBBE09A7DB344274EBB4FBBA2
:100B3C00089583E0F3DF472F7191741709F004D007
:100B4C0021968A95B9F70895CEBBDFBB7DBB4FB715
:100B5C00F894E29AE19A4FBF44274EBB4FBB0895DD
:100B6C005000C3000000100027000000A000860009
:100B7C00010040000D000300E00093000400800021
:100B8C001A0006002000A1000700C0002700090081
:100B9C006000AE000A00400042000F00800084009C
:0A0BAC001E0040004B004C00DE006C
:00000001FF
