:020000020000FC
:02000000CBC172
:10000C00A0E4AFBDA8E4AFBDC098AFBDDFB82FB6BC
:10001C001124380C491C5A1C6B1C711CA62D052C68
:10002C0070FCA09570FC0094B1E0AA0FB11D00000B
:10003C00CFB8CD90DD901C901C18109C001C002497
:10004C00C11CD01C71FE03C0C094D09403C0089492
:10005C00C008D008A8E4AFBD0FB8C09AA0E8AFBDE7
:10006C002FBE189579E07EBD70E87FBD70E07BBD3A
:10007C0079E47ABD70E178BF79BF74E57DB971E040
:10008C007EB9E6E9F1E0C0E0D1E075917993D33027
:10009C00E1F7C230D1F7CC24DD2433244424552499
:1000AC006624772488249924AA24BB240895792FC4
:1000BC007073C1F07033B1F0703121F49F7B90629A
:1000CC0012D010C07D2D77FD04C09064AA20D1F70A
:1000DC0009C096FF07C09F7D06D0332444245524C5
:1000EC0066247724089587E0CBE6D0E077277A93CF
:1000FC008A95E9F795FF39C0C8E1D3E055D41127AB
:10010C00495A5143664E1C4F10936300C0E6D0E031
:10011C0057D4C4E6D0E0E1E2F3E0729176957A83AD
:10012C0072917795798372917795788388E190F4C1
:10013C00E0E6F0E07B811191710F7B837C81119162
:10014C00711F7C837D811191711F7D837E81119143
:10015C00711F7E83EBE6F0E0729177957083EC1360
:10016C00FBCFFD13F9CF8A9511F7799110E87991AE
:10017C00710F4FB7F8948990881E9990981EA9908A
:10018C00A81EB990B81E4FBF08950000C900920177
:10019C005B022403ED03B6047F0548061107D9075B
:1001AC00A2086A09330AFB0AC40B8C0C540D1C0EF2
:1001BC00E30EAB0F72103A110112C8128F135514C3
:1001CC001C15E215A8166E173318F918BE19821AE9
:1001DC00471B0B1CCF1C931D571E1A1FDD1F9F2086
:1001EC0061212322E522A62367242825E825A826B9
:1001FC0067272628E528A329612A1F2BDC2B992C9D
:10020C00552D112ECC2E872F4130FB30B5316E324F
:10021C002633DF3396344D350436BA366F372438EF
:10022C00D9388C39403AF23AA53B563C073DB83D9B
:10023C00683E173FC53F73402141CE417A4225436A
:10024C00D0437A442445CD4575461C47C34769487D
:10025C000F49B449584AFB4A9D4B3F4CE04C814DE9
:10026C00204EBF4E5D4FFB4F97503351CE516852CD
:10027C0002539B533254C9546055F5558A561D5739
:10028C00B0574258D3586459F359825A0F5B9C5B50
:10029C00285CB35C3E5DC75D4F5ED75E5D5FE35F20
:1002AC006860EB606E61F0617162F1627063EE63C5
:1002BC006C64E8646365DD655666CF664667BC674B
:1002CC003268A66819698B69FD696D6ADC6A4A6BCC
:1002DC00B76B236C8E6CF86C616DC96D306E966E5D
:1002EC00FB6E5E6FC16F22708370E27040719D7106
:1002FC00F9715472AE7207735E73B5730A745F74DE
:10030C00B27404755575A575F37541768D76D876EE
:10031C0022776B77B377FA773F788478C778097947
:10032C004A798979C879057A417A7C7AB67AEE7AF3
:10033C00267B5C7B917BC57BF87B297C597C887CFC
:10034C00B67CE37C0E7D397D627D897DB07DD57D6B
:10035C00FA7D1D7E3E7E5F7E7E7E9C7EB97ED57E46
:10036C00EF7E097F217F377F4D7F617F747F867F92
:10037C00977FA67FB47FC17FCD7FD87FE17FE97F58
:10038C00F07FF57FF97FFD7FFE7FFF7FCFE5D4E027
:10039C00CDBFDEBF20D02CD011D03AD0789432D142
:1003AC0010D0CAD046D15DD007D0FACFA89578E14D
:1003BC0071BD7CE071BD0895A895089575E073BF7B
:1003CC0008959E7F78B770FF05C0716078BF74E6A2
:1003DC0072BF9160089570E078BB7FEF77BB70E0DF
:1003EC0075BB7FEF74BB74EF72BB7FEE71BB08956E
:1003FC00992708951197F1F708957F93B7E0A0ED31
:10040C00F9DFB7E0A0EDF6DF7A95C1F77F9108959B
:10041C0095987FE0F2DF70E371D075E0EEDF70E36A
:10042C006DD075E0EADF70E369D075E0E6DF70E26D
:10043C0065D075E0E2DF70E261D075E0DEDF70E080
:10044C005DD070EC5BD075E0D8DF70E057D071E018
:10045C0055D07FE0D2DF73E209D044D07FE0CDDF0E
:10046C00089591FF02C09D7F3DD00895C2E0D3E076
:10047C0080E179938A95E9F70895C5E0D3E0772771
:10048C0087E079938A95E9F788E1E5E0F3E0440F9A
:10049C00551F661FCCE0D3E07A91771F7A5F74FF0B
:1004AC0076507F707883CE13F7CFDF13F5CF8A9514
:1004BC0071F7E9E0F3E040E17881772329F449937F
:1004CC00CE17D1F7DF17C1F7FE01C7E0D3E0EC1769
:1004DC00FD07C6E0D3E010F0C9E0D3E07881706886
:1004EC0078830895C2E0D3E080E179917F930CD0BA
:1004FC007F91729509D08A95C1F708957F93729573
:10050C0006D07F9104D008957F70706101C07F7018
:10051C008F9385E09798969874FF01C0969A771FF1
:10052C008A95979AB9F7959A969A7F9375E065DFB5
:10053C007F9195988F91089537D0C2E1D3E048818F
:10054C00471789F04981471759F44B81442359F4D3
:10055C00488140307883D9F4946060E540E113C061
:10056C00798343E04B839B7F4C81442381F4488106
:10057C00443019F0423009F00AC094604A81442397
:10058C0021F04A9562E14A8301C066E06C8390FFDA
:10059C000AC07B81772311F07A957B837C8177234A
:1005AC0011F07A957C83089501D0969878E097980D
:1005BC008894849B0894979A969A771FC0F708950D
:1005CC0027E308D0089522E305D02DE203D023E2DF
:1005DC0001D0089516E908D00895272F20952F7083
:1005EC00225E19E101D00895322F80E18A95F1F74E
:1005FC003A95D9F7A89510FD929A10FF92981A95F2
:10060C0099F7089592E3EDD170E070931703C1D080
:10061C007AD1CADF713031F475E070931703B9D019
:10062C0072D160DF23E2D6DFBFDFA8957030E1F72F
:10063C00089592FF15C0C2E1D3E07881703081F04B
:10064C00CCDF743011F40DD00BC0723011F435D0F6
:10065C0007C0713011F463D003C0783009F476D040
:10066C00089570911703743089F0C4E2D3E09CD1E3
:10067C00C7E2D3E0A1D180D1C4E2D3E095D14E1929
:10068C005F09600B410F521F631F12C0C4E2D3E01D
:10069C008BD1440F551F661FECD0723049F4C4E265
:1006AC00D3E086D10695F794E7944E0D5F1D601F3D
:1006BC00E8D00CD1986027D108957091170374304D
:1006CC00B1F0C4E2D3E070D1C7E2D3E075D154D11C
:1006DC00C4E2D3E069D17E2D7F29702B21F04E1915
:1006EC005F09600B17C0411B520B630B13C0C4E2B4
:1006FC00D3E05AD1669557954795BBD0753051F4D8
:10070C00C4E2D3E051D1440F551F661F15E02227D8
:10071C00332732D1B6D0DAD09860F5D008957091E5
:10072C001703743099F0753011F45BD109C0703037
:10073C0029F093FF01C004C0733011F0739501C010
:10074C0070E07093170325D0DED0089570911703D5
:10075C00753011F470D117C0703011F474E014C0FE
:10076C00713039F4C1E2D3E01FD1CEE1D3E028D10E
:10077C0008C0723011F466D106C0733011F420DF5A
:10078C0006C070E02ADF70E07093170302D0BBD074
:10079C00089570911703753099F4C8E1D3E004D132
:1007AC00C4E2D3E00DD14AE050E060E0C7E2D3E010
:1007BC0007D140E050E060E01FE926E831E04CC092
:1007CC00703099F4CEE1D3E0EFD0C4E2D3E0F8D0AE
:1007DC00CBE1D3E0E9D0C7E2D3E0F2D044E650E07D
:1007EC0060E010E42BE43CE437C0743069F4CBE1F6
:1007FC00D3E0DAD0C4E2D3E0E3D041E050E060E0F3
:10080C0010E422E43FE028C07330A1F494FD41E0F1
:10081C0050E060E0C4E2D3E0D3D041E050E060E0CF
:10082C00C7E2D3E0CDD040E050E060E011E020E042
:10083C0030E012C040E050E060E0C4E2D3E0C0D051
:10084C0041E050E060E0C7E2D3E0BAD040E050E0D5
:10085C0060E019E020E030E0CAE2D3E0B5D0CDE2B0
:10086C00D3E0AED0C4E2D3E09FD00BD02FD0977F93
:10087C000895C5E0D3E079917F77E9F37031D9F32E
:10088C00089513D010F01BD060F4C4E2D3E08CD0E8
:10089C0097DE0BD010F013D020F44E2D5F2D602F6F
:1008AC008FDEC4E2D3E08CD00895CDE2D3E080D0CB
:1008BC0070EC761718F04E155F0560070895CAE2C4
:1008CC00D3E076D0E416F506060708957091170369
:1008DC00703021F4CEE1D3E073D014C0743021F425
:1008EC00CBE1D3E06DD00EC0733019F440FB94F91A
:1008FC0009C0713011F498D005C0753019F4C8E1F5
:10090C00D3E05ED0089570E1B1DDC4E2D3E04CD009
:10091C0070911703733089F4E8EEF9E0742F740FBB
:10092C00740FE70FF71FF71BC6E0D3E075917993AF
:10093C0075917993759179931DC0ECEDF9E0770F72
:10094C00E70FF71FF71BC2E0D3E075917993759110
:10095C00799370911703723029F440930303CEE11D
:10096C00D3E006C0713029F440930303C1E2D3E015
:10097C001BD083DD92600895EE24FF24001B89E1D7
:10098C00441F551F661F8A9559F0EE1CFF1C001F53
:10099C00E11AF20A030BA0F7E10EF21E031FF0CFCF
:1009AC004095509560950895499159916991089594
:1009BC00E990F99009910895199129913991089527
:1009CC0049935993699308951993299339930895E9
:1009DC000F101D100E1005170F050C10000F0F0532
:1009EC001A1BC5E2D0E04FD07E3D71F0E9DDC1E0CD
:1009FC00D0E0E6EDFAE047D075915BD031962196C8
:100A0C00C632C9F7D030B9F7C1E0D0E0E8E1F3E085
:100A1C0033D0C4E0D0E0EBE1F3E02ED0C7E0D0E07F
:100A2C00EEE1F3E029D00895709124031CD0E1E2AB
:100A3C00F3E022D00895C1E0D0E0E8E1F3E02ED05D
:100A4C00C2DD089570912403772339F47F93C4E0B9
:100A5C00D0E0EBE1F3E022D07F9105D0EEE1F3E0C2
:100A6C001DD0B1DD0895C7E0D0E0472F740F740F8F
:100A7C004427C70FD41F089583E005D071932196A6
:100A8C008A95D9F70895A895E199FDCFCEBBDFBB28
:100A9C00E09A7DB344274EBB4FBB089583E0F3DF50
:100AAC00472F7191741709F004D021968A95B9F7E4
:100ABC000895CEBBDFBB7DBB4FB7F894E29AE19AA9
:100ACC004FBF44274EBB4FBB08955000C3000000DE
:100ADC00100027000000A0008600010040000D005F
:100AEC000300E0009300040080001A0006002000C0
:100AFC00A1000700C000270009006000AE000A003A
:100B0C00400042000F00800084001E0040004B009B
:040B1C004C00DE00AB
:00000001FF
