:020000020000FC
:02000000CBC172
:10000C00A0E4AFBDA8E4AFBDC098AFBDDFB82FB6BC
:10001C001124380C491C5A1C6B1C711CA62D052C68
:10002C0070FCA09570FC0094B1E0AA0FB11D00000B
:10003C00CFB8CD90DD901C901C18109C001C002497
:10004C00C11CD01C71FE03C0C094D09403C0089492
:10005C00C008D008A8E4AFBD0FB8C09AA0E8AFBDE7
:10006C002FBE189579E07EBD70E87FBD70E07BBD3A
:10007C0079E47ABD70E178BF79BF74E57DB971E040
:10008C007EB9E6E9F1E0C0E0D1E075917993D33027
:10009C00E1F7C230D1F7CC24DD2433244424552499
:1000AC006624772488249924AA24BB240895792FC4
:1000BC007073C1F07033B1F0703121F49F7B90629A
:1000CC0012D010C07D2D77FD04C09064AA20D1F70A
:1000DC0009C096FF07C09F7D06D0332444245524C5
:1000EC0066247724089587E0CBE6D0E077277A93CF
:1000FC008A95E9F795FF39C0C8E2D3E07CD4112783
:10010C00495A5143664E1C4F10936300C0E6D0E031
:10011C007ED4C4E6D0E0E1E3F3E0729176957A8385
:10012C0072917795798372917795788388E190F4C1
:10013C00E0E6F0E07B811191710F7B837C81119162
:10014C00711F7C837D811191711F7D837E81119143
:10015C00711F7E83EBE6F0E0729177957083EC1360
:10016C00FBCFFD13F9CF8A9511F7799110E87991AE
:10017C00710F4FB7F8948990881E9990981EA9908A
:10018C00A81EB990B81E4FBF08950000C900920177
:10019C005B022403ED03B6047F0548061107D9075B
:1001AC00A2086A09330AFB0AC40B8C0C540D1C0EF2
:1001BC00E30EAB0F72103A110112C8128F135514C3
:1001CC001C15E215A8166E173318F918BE19821AE9
:1001DC00471B0B1CCF1C931D571E1A1FDD1F9F2086
:1001EC0061212322E522A62367242825E825A826B9
:1001FC0067272628E528A329612A1F2BDC2B992C9D
:10020C00552D112ECC2E872F4130FB30B5316E324F
:10021C002633DF3396344D350436BA366F372438EF
:10022C00D9388C39403AF23AA53B563C073DB83D9B
:10023C00683E173FC53F73402141CE417A4225436A
:10024C00D0437A442445CD4575461C47C34769487D
:10025C000F49B449584AFB4A9D4B3F4CE04C814DE9
:10026C00204EBF4E5D4FFB4F97503351CE516852CD
:10027C0002539B533254C9546055F5558A561D5739
:10028C00B0574258D3586459F359825A0F5B9C5B50
:10029C00285CB35C3E5DC75D4F5ED75E5D5FE35F20
:1002AC006860EB606E61F0617162F1627063EE63C5
:1002BC006C64E8646365DD655666CF664667BC674B
:1002CC003268A66819698B69FD696D6ADC6A4A6BCC
:1002DC00B76B236C8E6CF86C616DC96D306E966E5D
:1002EC00FB6E5E6FC16F22708370E27040719D7106
:1002FC00F9715472AE7207735E73B5730A745F74DE
:10030C00B27404755575A575F37541768D76D876EE
:10031C0022776B77B377FA773F788478C778097947
:10032C004A798979C879057A417A7C7AB67AEE7AF3
:10033C00267B5C7B917BC57BF87B297C597C887CFC
:10034C00B67CE37C0E7D397D627D897DB07DD57D6B
:10035C00FA7D1D7E3E7E5F7E7E7E9C7EB97ED57E46
:10036C00EF7E097F217F377F4D7F617F747F867F92
:10037C00977FA67FB47FC17FCD7FD87FE17FE97F58
:10038C00F07FF57FF97FFD7FFE7FFF7FCFE5D4E027
:10039C00CDBFDEBF0ED022D02ED013D03CD062DE2B
:1003AC00789457D111D0EFD06BD16ED080DE07D0BE
:1003BC00F9CFA89578E171BD7CE071BD0895A89541
:1003CC00089575E073BF08959E7F78B770FF05C0E0
:1003DC00716078BF74E672BF9160089570E078BB6D
:1003EC007FEF77BB70E075BB7FEF74BB74EF72BBB4
:1003FC007FEE71BB0895992708951197F1F7089531
:10040C007F93B7E0A0EDF9DFB7E0A0EDF6DF7A95CA
:10041C00C1F77F91089595987FE0F2DF70E37DD06E
:10042C0075E0EEDF70E379D071E0EADF70E375D050
:10043C0075E0E6DF70E271D075E0E2DF70E26DD05E
:10044C0075E0DEDF70E869D071E0DADF70E065D06E
:10045C0071E0D6DF70EC61D071E0D2DF70E05DD07E
:10046C0071E0CEDF70E659D071E0CADF70E055D094
:10047C0071E0C6DF71E051D071E0C2DF70E209D0EB
:10048C0044D071E0BDDF089591FF02C09D7F3DD047
:10049C000895C2E0D3E080E279938A95E9F7089554
:1004AC00C5E0D3E0772787E079938A95E9F788E16F
:1004BC00E5E0F3E0440F551F661FCCE0D3E07A91E2
:1004CC00771F7A5F74FF76507F707883CE13F7CFE7
:1004DC00DF13F5CF8A9571F7E9E0F3E040E278811C
:1004EC00772329F44993CE17D1F7DF17C1F7FE0113
:1004FC00C7E0D3E0EC17FD07C6E0D3E010F0C9E08D
:10050C00D3E07881706878830895C2E0D3E080E10D
:10051C00799108D08A95E1F708957F9372950BD065
:10052C007F9108957F93729503D07F9101D00895A8
:10053C007F70706101C07F708F9385E0979896985B
:10054C0074FF01C0969A771F8A95979AB9F7959A76
:10055C00969A7F9371E054DF7F9195988F910895CF
:10056C00EE602F6DE1CDCF68EFEDEBC78E678F8B13
:10057C0000010408A907CEE36086024347AB8A0357
:10058C0087E646E5868A37D0C2E2D3E04881471732
:10059C0089F04981471759F44B81442359F4488118
:1005AC0040307883D9F4946060E540E113C07983DE
:1005BC0043E04B839B7F4C81442381F4488144303E
:1005CC0019F0423009F00AC094604A81442321F0AA
:1005DC004A9562E14A8301C066E06C8390FF0AC0D1
:1005EC007B81772311F07A957B837C81772311F0C3
:1005FC007A957C83089501D0969878E097988894A2
:10060C00849B0894979A969A771FC0F7089527E3CE
:10061C0008D0089522E305D02DE203D023E201D0C7
:10062C00089516E908D00895272F20952F70225E83
:10063C0019E101D00895322F80E18A95F1F73A95AE
:10064C00D9F7A89510FD929A10FF92981A9599F7E0
:10065C00089592E3EDD170E070932703C1D07AD165
:10066C00CADF713031F475E070932703B9D072D1C1
:10067C004CDF23E2D6DFBFDFA8957030E1F7089599
:10068C0092FF15C0C2E2D3E07881703081F0CCDFEC
:10069C00743011F40DD00BC0723011F435D007C08A
:1006AC00713011F463D003C0783009F476D008951A
:1006BC0070912703743089F0C4E3D3E09CD1C7E375
:1006CC00D3E0A1D180D1C4E3D3E095D14E195F0919
:1006DC00600B410F521F631F12C0C4E3D3E08BD1D8
:1006EC00440F551F661FECD0723049F4C4E3D3E0BD
:1006FC0086D10695F794E7944E0D5F1D601FE8D0E8
:10070C000CD1986027D10895709127037430B1F003
:10071C00C4E3D3E070D1C7E3D3E075D154D1C4E3C3
:10072C00D3E069D17E2D7F29702B21F04E195F0902
:10073C00600B17C0411B520B630B13C0C4E3D3E017
:10074C005AD1669557954795BBD0753051F4C4E393
:10075C00D3E051D1440F551F661F15E022273327D4
:10076C0032D1B6D0DAD09860F5D0089570912703C5
:10077C00743099F0753011F45BD109C0703029F0E8
:10078C0093FF01C004C0733011F0739501C070E089
:10079C007093270325D0DED0089570912703753010
:1007AC0011F470D117C0703011F474E014C07130B2
:1007BC0039F4C1E3D3E01FD1CEE2D3E028D108C095
:1007CC00723011F466D106C0733011F420DF06C00C
:1007DC0070E02ADF70E07093270302D0BBD008953D
:1007EC0070912703753099F4C8E2D3E004D1C4E3C7
:1007FC00D3E00DD14AE050E060E0C7E3D3E007D18D
:10080C0040E050E060E01FE926E831E04CC0703079
:10081C0099F4CEE2D3E0EFD0C4E3D3E0F8D0CBE24E
:10082C00D3E0E9D0C7E3D3E0F2D044E650E060E097
:10083C0010E42BE43CE437C0743069F4CBE2D3E031
:10084C00DAD0C4E3D3E0E3D041E050E060E010E460
:10085C0022E43FE028C07330A1F494FD41E050E065
:10086C0060E0C4E3D3E0D3D041E050E060E0C7E304
:10087C00D3E0CDD040E050E060E011E020E030E08B
:10088C0012C040E050E060E0C4E3D3E0C0D041E0EF
:10089C0050E060E0C7E3D3E0BAD040E050E060E065
:1008AC0019E020E030E0CAE3D3E0B5D0CDE3D3E0EB
:1008BC00AED0C4E3D3E09FD00BD02FD0977F089558
:1008CC00C5E0D3E079917F77E9F37032D9F30895DD
:1008DC0013D010F01BD060F4C4E3D3E08CD097DEBF
:1008EC000BD010F013D020F44E2D5F2D602F8FDE27
:1008FC00C4E3D3E08CD00895CDE3D3E080D070EC8A
:10090C00761718F04E155F0560070895CAE3D3E01B
:10091C0076D0E416F506060708957091270370301B
:10092C0021F4CEE2D3E073D014C0743021F4CBE2C6
:10093C00D3E06DD00EC0733019F440FB94F909C0AC
:10094C00713011F498D005C0753019F4C8E2D3E0B9
:10095C005ED0089570E29DDDC4E3D3E04CD070917D
:10096C002703733089F4E6E3FAE0742F740F740FE5
:10097C00E70FF71FF71BC6E0D3E0759179937591DC
:10098C007993759179931DC0EAE2FAE0770FE70F3E
:10099C00F71FF71BC2E0D3E07591799375917993AA
:1009AC0070912703723029F440930303CEE2D3E015
:1009BC0006C0713029F440930303C1E3D3E01BD08C
:1009CC006FDD92600895EE24FF24001B89E1441F23
:1009DC00551F661F8A9559F0EE1CFF1C001FE11A6B
:1009EC00F20A030BA0F7E10EF21E031FF0CF4095A5
:1009FC005095609508954991599169910895E990A0
:100A0C00F990099108951991299139910895499373
:100A1C00599369930895199329933993089546200E
:100A2C00502045205348465343204F464653696E49
:100A3C00C5E2D0E04FD07E3D71F0E9DDC1E0D0E001
:100A4C00E4E2FBE047D075915BD031962196C6323B
:100A5C00C9F7D030B9F7C1E0D0E0E8E2F3E033D029
:100A6C00C4E0D0E0EBE2F3E02ED0C7E0D0E0EEE261
:100A7C00F3E029D00895709134031CD0E1E3F3E046
:100A8C0022D00895C1E0D0E0E8E2F3E02ED0C2DD40
:100A9C00089570913403772339F47F93C4E0D0E048
:100AAC00EBE2F3E022D07F9105D0EEE2F3E01DD033
:100ABC00B1DD0895C7E0D0E0472F740F740F4427C1
:100ACC00C70FD41F089583E005D0719321968A95A2
:100ADC00D9F70895A895E199FDCFCEBBDFBBE09A7D
:100AEC007DB344274EBB4FBB089583E0F3DF472F04
:100AFC007191741709F004D021968A95B9F708956D
:100B0C00CEBBDFBB7DBB4FB7F894E29AE19A4FBFE7
:100B1C0044274EBB4FBB08955000C300000010008B
:100B2C0027000000A0008600010040000D0003001B
:100B3C00E0009300040080001A0006002000A100D1
:100B4C000700C000270009006000AE000A0040004A
:100B5C0042000F00800084001E0040004B004C003F
:020B6C00DE00A9
:00000001FF
