:020000020000FC
:0200000005C039
:10000C00CFE5D4E0CDBFDEBF0CD020D02CD011D0AA
:10001C002CD0789417D110D0AFD02BD12ED007D0B4
:10002C00FACFA89578E171BD7CE071BD0895A895D3
:10003C00089575E073BF08959E7F78B770FF05C073
:10004C00716078BF74E672BF9160089570E078BB00
:10005C007FEF77BB70E075BB7FEF74BB74EF72BB47
:10006C007FEE71BB0895992708957FE061D07FE002
:10007C005CD070E107D042D0089591FF02C09D7F03
:10008C003DD00895C0E6D0E08AE079938A95E9F7EF
:10009C000895C3E6D0E0772787E079938A95E9F74E
:1000AC0088E1E3E6F0E0440F551F661FCAE6D0E096
:1000BC007A91771F7A5F74FF76507F707883CE13B6
:1000CC00F7CFDF13F5CF8A9571F7E7E6F0E040E163
:1000DC007881772329F44993CE17D1F7DF17C1F72D
:1000EC00FE01C5E6D0E0EC17FD07C4E6D0E010F049
:1000FC00C7E6D0E0788170687883089570E018D0F6
:10010C00C0E6D0E08AE0799177FB7F77EEE5F1E00D
:10011C00E70FF71FF71B74917F9307D07F9174F94A
:10012C00729503D08A9579F708957F70706101C03C
:10013C007F708F9385E09798969874FF01C0969A7C
:10014C00771F8A95979AB9F79598969A959A8F9161
:10015C000895EE602F6DE1CDCF68EFEDEBC78E67A4
:10016C008F8B00010408A907CEE36086024347ABDE
:10017C008A0387E646E5868A37D0C0E7D0E0488117
:10018C00471789F04981471759F44B81442359F497
:10019C00488140307883D9F4946060E540E113C025
:1001AC00798343E04B839B7F4C81442381F44881CA
:1001BC00443019F0423009F00AC094604A8144235B
:1001CC0021F04A9562E14A8301C066E06C8390FF9E
:1001DC000AC07B81772311F07A957B837C8177230E
:1001EC0011F07A957C83089501D0969878E09798D1
:1001FC008894849B0894979A969A771FC0F70895D1
:10020C0027E308D0089522E305D02DE203D023E2A2
:10021C0001D0089516E908D00895272F20952F7046
:10022C00225E19E101D00895322F80E18A95F1F711
:10023C003A95D9F7A89510FD929A10FF92981A95B5
:10024C0099F7089592E3EDD170E070937500C1D0E9
:10025C007AD1CADF713031F475E070937500B9D082
:10026C0072D14CDF23E2D6DFBFDFA8957030E1F707
:10027C00089592FF15C0C0E7D0E07881703081F00E
:10028C00CCDF743011F40DD00BC0723011F435D0BA
:10029C0007C0713011F463D003C0783009F476D004
:1002AC00089570917500743089F0C2E8D0E09CD14B
:1002BC00C5E8D0E0A1D180D1C2E8D0E095D14E19EB
:1002CC005F09600B410F521F631F12C0C2E8D0E0E0
:1002DC008BD1440F551F661FECD0723049F4C2E825
:1002EC00D0E086D10695F794E7944E0D5F1D601F04
:1002FC00E8D00CD1986027D10895709175007430B6
:10030C00B1F0C2E8D0E070D1C5E8D0E075D154D1DD
:10031C00C2E8D0E069D17E2D7F29702B21F04E19D7
:10032C005F09600B17C0411B520B630B13C0C2E873
:10033C00D0E05AD1669557954795BBD0753051F49E
:10034C00C2E8D0E051D1440F551F661F15E022279B
:10035C00332732D1B6D0DAD09860F5D008957091A9
:10036C007500743099F0753011F45BD109C07030A0
:10037C0029F093FF01C004C0733011F0739501C0D4
:10038C0070E07093750025D0DED0089570917500E3
:10039C00753011F470D117C0703011F474E014C0C2
:1003AC00713039F4CFE7D0E01FD1CCE7D0E028D1C1
:1003BC0008C0723011F466D106C0733011F420DF1E
:1003CC0006C070E02ADF70E07093750002D0BBD0DD
:1003DC00089570917500753099F4C6E7D0E004D19A
:1003EC00C2E8D0E00DD14AE050E060E0C5E8D0E0D2
:1003FC0007D140E050E060E01FE926E831E04CC056
:10040C00703099F4CCE7D0E0EFD0C2E8D0E0F8D06F
:10041C00C9E7D0E0E9D0C5E8D0E0F2D044E650E03E
:10042C0060E010E42BE43CE437C0743069F4C9E7B5
:10043C00D0E0DAD0C2E8D0E0E3D041E050E060E0B8
:10044C0010E422E43FE028C07330A1F494FD41E0B5
:10045C0050E060E0C2E8D0E0D3D041E050E060E092
:10046C00C5E8D0E0CDD040E050E060E011E020E005
:10047C0030E012C040E050E060E0C2E8D0E0C0D014
:10048C0041E050E060E0C5E8D0E0BAD040E050E098
:10049C0060E019E020E030E0C8E8D0E0B5D0CBE86F
:1004AC00D0E0AED0C2E8D0E09FD00BD02FD0977F59
:1004BC000895C3E6D0E079917F77E9F37031D9F3F1
:1004CC00089513D010F01BD060F4C2E8D0E08CD0AB
:1004DC0097DE0BD010F013D020F44E2D5F2D602F33
:1004EC008FDEC2E8D0E08CD00895CBE8D0E080D08D
:1004FC0070EC761718F04E155F0560070895C8E884
:10050C00D0E076D0E416F5060607089570917500D4
:10051C00703021F4CCE7D0E073D014C0743021F4E7
:10052C00C9E7D0E06DD00EC0733019F440FB94F9DC
:10053C0009C0713011F498D005C0753019F4C6E7B4
:10054C00D0E05ED0089570E19DDDC2E8D0E04CD0E3
:10055C0070917500733089F4E8E2F6E0742F740F33
:10056C00740FE70FF71FF71BC4E6D0E07591799372
:10057C0075917993759179931DC0ECE1F6E0770F45
:10058C00E70FF71FF71BC0E6D0E0759179937591D3
:10059C00799370917500723029F440936100CCE727
:1005AC00D0E006C0713029F440936100CFE7D0E071
:1005BC001BD06FDD92600895EE24FF24001B89E1AF
:1005CC00441F551F661F8A9559F0EE1CFF1C001F17
:1005DC00E11AF20A030BA0F7E10EF21E031FF0CF93
:1005EC004095509560950895499159916991089558
:1005FC00E990F990099108951991299139910895EB
:10060C0049935993699308951993299339930895AC
:10061C000F101D100E1005170F050C10000F0F05F5
:10062C001A1BC5E2D0E04FD07E3D71F0E9DDC1E090
:10063C00D0E0E6E1F7E047D075915BD0319621969A
:10064C00C632C9F7D030B9F7C1E0D0E0E6E7F0E048
:10065C0033D0C4E0D0E0E9E7F0E02ED0C7E0D0E042
:10066C00ECE7F0E029D00895709182001CD0EFE700
:10067C00F0E022D00895C1E0D0E0E6E7F0E02ED023
:10068C00C2DD089570918200772339F47F93C4E022
:10069C00D0E0E9E7F0E022D07F9105D0ECE7F0E084
:1006AC001DD0B1DD0895C7E0D0E0472F740F740F53
:1006BC004427C70FD41F089583E005D0719321966A
:1006CC008A95D9F70895A895E199FDCFCEBBDFBBEC
:1006DC00E09A7DB344274EBB4FBB089583E0F3DF14
:1006EC00472F7191741709F004D021968A95B9F7A8
:1006FC000895CEBBDFBB7DBB4FB7F894E29AE19A6D
:10070C004FBF44274EBB4FBB08955000C3000000A1
:10071C00100027000000A0008600010040000D0022
:10072C000300E0009300040080001A000600200083
:10073C00A1000700C000270009006000AE000A00FD
:10074C00400042000F00800084001E0040004B005F
:04075C004C00DE006F
:00000001FF
